{
  "contractName": "EnergyTrading",
  "abi": [
    {
      "anonymous": false,
      "inputs": [
        {
          "indexed": false,
          "internalType": "address",
          "name": "winner",
          "type": "address"
        },
        {
          "indexed": false,
          "internalType": "uint256",
          "name": "amount",
          "type": "uint256"
        },
        {
          "indexed": false,
          "internalType": "uint256",
          "name": "energyAmount",
          "type": "uint256"
        }
      ],
      "name": "AuctionEnded",
      "type": "event"
    },
    {
      "anonymous": false,
      "inputs": [
        {
          "indexed": false,
          "internalType": "address",
          "name": "seller",
          "type": "address"
        },
        {
          "indexed": false,
          "internalType": "uint256",
          "name": "energyAmount",
          "type": "uint256"
        },
        {
          "indexed": false,
          "internalType": "uint256",
          "name": "pricePerUnit",
          "type": "uint256"
        }
      ],
      "name": "EnergyOffered",
      "type": "event"
    },
    {
      "anonymous": false,
      "inputs": [
        {
          "indexed": false,
          "internalType": "address",
          "name": "bidder",
          "type": "address"
        },
        {
          "indexed": false,
          "internalType": "uint256",
          "name": "bidAmount",
          "type": "uint256"
        }
      ],
      "name": "NewBid",
      "type": "event"
    },
    {
      "anonymous": false,
      "inputs": [
        {
          "indexed": false,
          "internalType": "address",
          "name": "user",
          "type": "address"
        }
      ],
      "name": "UserRegistered",
      "type": "event"
    },
    {
      "inputs": [
        {
          "internalType": "uint256",
          "name": "",
          "type": "uint256"
        }
      ],
      "name": "bids",
      "outputs": [
        {
          "internalType": "address",
          "name": "bidder",
          "type": "address"
        },
        {
          "internalType": "uint256",
          "name": "amount",
          "type": "uint256"
        },
        {
          "internalType": "uint256",
          "name": "offerId",
          "type": "uint256"
        }
      ],
      "stateMutability": "view",
      "type": "function"
    },
    {
      "inputs": [
        {
          "internalType": "uint256",
          "name": "",
          "type": "uint256"
        }
      ],
      "name": "energyOffers",
      "outputs": [
        {
          "internalType": "uint256",
          "name": "id",
          "type": "uint256"
        },
        {
          "internalType": "address",
          "name": "seller",
          "type": "address"
        },
        {
          "internalType": "uint256",
          "name": "energyAmount",
          "type": "uint256"
        },
        {
          "internalType": "uint256",
          "name": "pricePerUnit",
          "type": "uint256"
        },
        {
          "internalType": "uint256",
          "name": "auctionEndTime",
          "type": "uint256"
        },
        {
          "internalType": "address",
          "name": "highestBidder",
          "type": "address"
        },
        {
          "internalType": "uint256",
          "name": "highestBid",
          "type": "uint256"
        },
        {
          "internalType": "bool",
          "name": "auctionEnded",
          "type": "bool"
        }
      ],
      "stateMutability": "view",
      "type": "function"
    },
    {
      "inputs": [
        {
          "internalType": "address",
          "name": "",
          "type": "address"
        }
      ],
      "name": "users",
      "outputs": [
        {
          "internalType": "bool",
          "name": "",
          "type": "bool"
        }
      ],
      "stateMutability": "view",
      "type": "function"
    },
    {
      "inputs": [],
      "name": "registerUser",
      "outputs": [],
      "stateMutability": "nonpayable",
      "type": "function"
    },
    {
      "inputs": [
        {
          "internalType": "uint256",
          "name": "_energyAmount",
          "type": "uint256"
        },
        {
          "internalType": "uint256",
          "name": "_pricePerUnit",
          "type": "uint256"
        },
        {
          "internalType": "uint256",
          "name": "_auctionDurationMinutes",
          "type": "uint256"
        }
      ],
      "name": "offerEnergy",
      "outputs": [],
      "stateMutability": "nonpayable",
      "type": "function"
    },
    {
      "inputs": [
        {
          "internalType": "uint256",
          "name": "offerId",
          "type": "uint256"
        },
        {
          "internalType": "uint256",
          "name": "_bidAmount",
          "type": "uint256"
        }
      ],
      "name": "placeBid",
      "outputs": [],
      "stateMutability": "payable",
      "type": "function"
    },
    {
      "inputs": [
        {
          "internalType": "uint256",
          "name": "offerId",
          "type": "uint256"
        }
      ],
      "name": "endAuction",
      "outputs": [],
      "stateMutability": "nonpayable",
      "type": "function"
    },
    {
      "inputs": [],
      "name": "getActiveOffers",
      "outputs": [
        {
          "internalType": "uint256[]",
          "name": "",
          "type": "uint256[]"
        }
      ],
      "stateMutability": "view",
      "type": "function"
    },
    {
      "inputs": [
        {
          "internalType": "uint256",
          "name": "offerId",
          "type": "uint256"
        }
      ],
      "name": "getBids",
      "outputs": [
        {
          "components": [
            {
              "internalType": "address",
              "name": "bidder",
              "type": "address"
            },
            {
              "internalType": "uint256",
              "name": "amount",
              "type": "uint256"
            },
            {
              "internalType": "uint256",
              "name": "offerId",
              "type": "uint256"
            }
          ],
          "internalType": "struct EnergyTrading.Bid[]",
          "name": "",
          "type": "tuple[]"
        }
      ],
      "stateMutability": "view",
      "type": "function"
    }
  ],
  "bytecode": "0x608060405234801561001057600080fd5b50611cce806100206000396000f3fe6080604052600436106100865760003560e01c806357c90de51161005957806357c90de5146101625780637ff118ef1461017e578063a5ff3b94146101a9578063a87430ba146101d2578063b9a2de3a1461020f57610086565b8063131d9a271461008b5780633fa2f801146100c85780634423c5f11461010c5780634d3820eb1461014b575b600080fd5b34801561009757600080fd5b506100b260048036038101906100ad9190611380565b610238565b6040516100bf919061189a565b60405180910390f35b3480156100d457600080fd5b506100ef60048036038101906100ea9190611380565b6104d2565b6040516101039897969594939291906119f9565b60405180910390f35b34801561011857600080fd5b50610133600480360381019061012e9190611380565b610577565b60405161014293929190611863565b60405180910390f35b34801561015757600080fd5b506101606105d1565b005b61017c600480360381019061017791906113a9565b6106ed565b005b34801561018a57600080fd5b50610193610a64565b6040516101a091906118bc565b60405180910390f35b3480156101b557600080fd5b506101d060048036038101906101cb91906113e5565b610cfa565b005b3480156101de57600080fd5b506101f960048036038101906101f49190611357565b610fe5565b60405161020691906118de565b60405180910390f35b34801561021b57600080fd5b5061023660048036038101906102319190611380565b611005565b005b60606000805b6002805490508110156102c0578360028281548110610286577f4e487b7100000000000000000000000000000000000000000000000000000000600052603260045260246000fd5b90600052602060002090600302016002015414156102ad5781806102a990611bf2565b9250505b80806102b890611bf2565b91505061023e565b5060008167ffffffffffffffff811115610303577f4e487b7100000000000000000000000000000000000000000000000000000000600052604160045260246000fd5b60405190808252806020026020018201604052801561033c57816020015b6103296112f6565b8152602001906001900390816103215790505b5090506000805b6002805490508110156104c657856002828154811061038b577f4e487b7100000000000000000000000000000000000000000000000000000000600052603260045260246000fd5b90600052602060002090600302016002015414156104b357600281815481106103dd577f4e487b7100000000000000000000000000000000000000000000000000000000600052603260045260246000fd5b90600052602060002090600302016040518060600160405290816000820160009054906101000a900473ffffffffffffffffffffffffffffffffffffffff1673ffffffffffffffffffffffffffffffffffffffff1673ffffffffffffffffffffffffffffffffffffffff16815260200160018201548152602001600282015481525050838381518110610499577f4e487b7100000000000000000000000000000000000000000000000000000000600052603260045260246000fd5b602002602001018190525081806104af90611bf2565b9250505b80806104be90611bf2565b915050610343565b50819350505050919050565b600181815481106104e257600080fd5b90600052602060002090600802016000915090508060000154908060010160009054906101000a900473ffffffffffffffffffffffffffffffffffffffff16908060020154908060030154908060040154908060050160009054906101000a900473ffffffffffffffffffffffffffffffffffffffff16908060060154908060070160009054906101000a900460ff16905088565b6002818154811061058757600080fd5b90600052602060002090600302016000915090508060000160009054906101000a900473ffffffffffffffffffffffffffffffffffffffff16908060010154908060020154905083565b6000803373ffffffffffffffffffffffffffffffffffffffff1673ffffffffffffffffffffffffffffffffffffffff16815260200190815260200160002060009054906101000a900460ff161561065d576040517f08c379a000000000000000000000000000000000000000000000000000000000815260040161065490611999565b60405180910390fd5b60016000803373ffffffffffffffffffffffffffffffffffffffff1673ffffffffffffffffffffffffffffffffffffffff16815260200190815260200160002060006101000a81548160ff0219169083151502179055507f54db7a5cb4735e1aac1f53db512d3390390bb6637bd30ad4bf9fc98667d9b9b9336040516106e3919061181f565b60405180910390a1565b6000803373ffffffffffffffffffffffffffffffffffffffff1673ffffffffffffffffffffffffffffffffffffffff16815260200190815260200160002060009054906101000a900460ff16610778576040517f08c379a000000000000000000000000000000000000000000000000000000000815260040161076f90611979565b60405180910390fd5b6000600183815481106107b4577f4e487b7100000000000000000000000000000000000000000000000000000000600052603260045260246000fd5b906000526020600020906008020190506107cd8361118a565b80600401544210610813576040517f08c379a000000000000000000000000000000000000000000000000000000000815260040161080a90611919565b60405180910390fd5b80600601548211610859576040517f08c379a0000000000000000000000000000000000000000000000000000000008152600401610850906119b9565b60405180910390fd5b600073ffffffffffffffffffffffffffffffffffffffff168160050160009054906101000a900473ffffffffffffffffffffffffffffffffffffffff1673ffffffffffffffffffffffffffffffffffffffff1614610921578060050160009054906101000a900473ffffffffffffffffffffffffffffffffffffffff1673ffffffffffffffffffffffffffffffffffffffff166108fc82600601549081150290604051600060405180830381858888f1935050505015801561091f573d6000803e3d6000fd5b505b600260405180606001604052803373ffffffffffffffffffffffffffffffffffffffff16815260200184815260200185815250908060018154018082558091505060019003906000526020600020906003020160009091909190915060008201518160000160006101000a81548173ffffffffffffffffffffffffffffffffffffffff021916908373ffffffffffffffffffffffffffffffffffffffff16021790555060208201518160010155604082015181600201555050338160050160006101000a81548173ffffffffffffffffffffffffffffffffffffffff021916908373ffffffffffffffffffffffffffffffffffffffff1602179055503481600601819055507fdd0b6c6a77960e2066c96171b4d7ac9e8b4c184011f38544afa36a5bb63ec59f3334604051610a5792919061183a565b60405180910390a1505050565b60606000805b600180549050811015610b4e5760018181548110610ab1577f4e487b7100000000000000000000000000000000000000000000000000000000600052603260045260246000fd5b90600052602060002090600802016004015442108015610b27575060018181548110610b06577f4e487b7100000000000000000000000000000000000000000000000000000000600052603260045260246000fd5b906000526020600020906008020160070160009054906101000a900460ff16155b15610b3b578180610b3790611bf2565b9250505b8080610b4690611bf2565b915050610a6a565b5060008167ffffffffffffffff811115610b91577f4e487b7100000000000000000000000000000000000000000000000000000000600052604160045260246000fd5b604051908082528060200260200182016040528015610bbf5781602001602082028036833780820191505090505b5090506000805b600180549050811015610cf05760018181548110610c0d577f4e487b7100000000000000000000000000000000000000000000000000000000600052603260045260246000fd5b90600052602060002090600802016004015442108015610c83575060018181548110610c62577f4e487b7100000000000000000000000000000000000000000000000000000000600052603260045260246000fd5b906000526020600020906008020160070160009054906101000a900460ff16155b15610cdd5780838381518110610cc2577f4e487b7100000000000000000000000000000000000000000000000000000000600052603260045260246000fd5b6020026020010181815250508180610cd990611bf2565b9250505b8080610ce890611bf2565b915050610bc6565b5081935050505090565b6000803373ffffffffffffffffffffffffffffffffffffffff1673ffffffffffffffffffffffffffffffffffffffff16815260200190815260200160002060009054906101000a900460ff16610d85576040517f08c379a0000000000000000000000000000000000000000000000000000000008152600401610d7c90611979565b60405180910390fd5b60008311610dc8576040517f08c379a0000000000000000000000000000000000000000000000000000000008152600401610dbf906118f9565b60405180910390fd5b60008211610e0b576040517f08c379a0000000000000000000000000000000000000000000000000000000008152600401610e0290611959565b60405180910390fd5b6000603c82610e1a9190611b50565b42610e259190611afa565b9050600160405180610100016040528060018054905081526020013373ffffffffffffffffffffffffffffffffffffffff168152602001868152602001858152602001838152602001600073ffffffffffffffffffffffffffffffffffffffff168152602001600081526020016000151581525090806001815401808255809150506001900390600052602060002090600802016000909190919091506000820151816000015560208201518160010160006101000a81548173ffffffffffffffffffffffffffffffffffffffff021916908373ffffffffffffffffffffffffffffffffffffffff16021790555060408201518160020155606082015181600301556080820151816004015560a08201518160050160006101000a81548173ffffffffffffffffffffffffffffffffffffffff021916908373ffffffffffffffffffffffffffffffffffffffff16021790555060c0820151816006015560e08201518160070160006101000a81548160ff02191690831515021790555050507f0b24b87787ceec4917911e3044ae71281a4eec8918ab80e988ed71ff88bedfd9338585604051610fd793929190611863565b60405180910390a150505050565b60006020528060005260406000206000915054906101000a900460ff1681565b8060018181548110611040577f4e487b7100000000000000000000000000000000000000000000000000000000600052603260045260246000fd5b906000526020600020906008020160010160009054906101000a900473ffffffffffffffffffffffffffffffffffffffff1673ffffffffffffffffffffffffffffffffffffffff163373ffffffffffffffffffffffffffffffffffffffff16146110df576040517f08c379a00000000000000000000000000000000000000000000000000000000081526004016110d690611939565b60405180910390fd5b60006001838154811061111b577f4e487b7100000000000000000000000000000000000000000000000000000000600052603260045260246000fd5b906000526020600020906008020190506111348361118a565b8060070160009054906101000a900460ff16611185576040517f08c379a000000000000000000000000000000000000000000000000000000000815260040161117c906119d9565b60405180910390fd5b505050565b6000600182815481106111c6577f4e487b7100000000000000000000000000000000000000000000000000000000600052603260045260246000fd5b90600052602060002090600802019050806004015442101580156111f957508060070160009054906101000a900460ff16155b156112f25760018160070160006101000a81548160ff0219169083151502179055508060010160009054906101000a900473ffffffffffffffffffffffffffffffffffffffff1673ffffffffffffffffffffffffffffffffffffffff166108fc82600601549081150290604051600060405180830381858888f19350505050158015611289573d6000803e3d6000fd5b507fc358e8e3f205b5e7453abd5cbac388ca4552b887b69001bc972b88610c7490358160050160009054906101000a900473ffffffffffffffffffffffffffffffffffffffff16826006015483600201546040516112e993929190611863565b60405180910390a15b5050565b6040518060600160405280600073ffffffffffffffffffffffffffffffffffffffff16815260200160008152602001600081525090565b60008135905061133c81611c6a565b92915050565b60008135905061135181611c81565b92915050565b60006020828403121561136957600080fd5b60006113778482850161132d565b91505092915050565b60006020828403121561139257600080fd5b60006113a084828501611342565b91505092915050565b600080604083850312156113bc57600080fd5b60006113ca85828601611342565b92505060206113db85828601611342565b9150509250929050565b6000806000606084860312156113fa57600080fd5b600061140886828701611342565b935050602061141986828701611342565b925050604061142a86828701611342565b9150509250925092565b600061144083836117bf565b60608301905092915050565b60006114588383611801565b60208301905092915050565b61146d81611baa565b82525050565b61147c81611baa565b82525050565b600061148d82611a97565b6114978185611ac7565b93506114a283611a77565b8060005b838110156114d35781516114ba8882611434565b97506114c583611aad565b9250506001810190506114a6565b5085935050505092915050565b60006114eb82611aa2565b6114f58185611ad8565b935061150083611a87565b8060005b83811015611531578151611518888261144c565b975061152383611aba565b925050600181019050611504565b5085935050505092915050565b61154781611bbc565b82525050565b600061155a602883611ae9565b91507f456e6572677920616d6f756e74206d757374206265206772656174657220746860008301527f616e207a65726f2e0000000000000000000000000000000000000000000000006020830152604082019050919050565b60006115c0601283611ae9565b91507f41756374696f6e2068617320656e6465642e00000000000000000000000000006000830152602082019050919050565b6000611600601e83611ae9565b91507f4f6e6c79207468652073656c6c65722063616e2063616c6c20746869732e00006000830152602082019050919050565b6000611640602983611ae9565b91507f50726963652070657220756e6974206d7573742062652067726561746572207460008301527f68616e207a65726f2e00000000000000000000000000000000000000000000006020830152604082019050919050565b60006116a6601883611ae9565b91507f55736572206d75737420626520726567697374657265642e00000000000000006000830152602082019050919050565b60006116e6601883611ae9565b91507f5573657220616c726561647920726567697374657265642e00000000000000006000830152602082019050919050565b6000611726603083611ae9565b91507f426964206d75737420626520686967686572207468616e20746865206375727260008301527f656e742068696768657374206269642e000000000000000000000000000000006020830152604082019050919050565b600061178c601a83611ae9565b91507f41756374696f6e20686173206e6f7420656e646564207965742e0000000000006000830152602082019050919050565b6060820160008201516117d56000850182611464565b5060208201516117e86020850182611801565b5060408201516117fb6040850182611801565b50505050565b61180a81611be8565b82525050565b61181981611be8565b82525050565b60006020820190506118346000830184611473565b92915050565b600060408201905061184f6000830185611473565b61185c6020830184611810565b9392505050565b60006060820190506118786000830186611473565b6118856020830185611810565b6118926040830184611810565b949350505050565b600060208201905081810360008301526118b48184611482565b905092915050565b600060208201905081810360008301526118d681846114e0565b905092915050565b60006020820190506118f3600083018461153e565b92915050565b600060208201905081810360008301526119128161154d565b9050919050565b60006020820190508181036000830152611932816115b3565b9050919050565b60006020820190508181036000830152611952816115f3565b9050919050565b6000602082019050818103600083015261197281611633565b9050919050565b6000602082019050818103600083015261199281611699565b9050919050565b600060208201905081810360008301526119b2816116d9565b9050919050565b600060208201905081810360008301526119d281611719565b9050919050565b600060208201905081810360008301526119f28161177f565b9050919050565b600061010082019050611a0f600083018b611810565b611a1c602083018a611473565b611a296040830189611810565b611a366060830188611810565b611a436080830187611810565b611a5060a0830186611473565b611a5d60c0830185611810565b611a6a60e083018461153e565b9998505050505050505050565b6000819050602082019050919050565b6000819050602082019050919050565b600081519050919050565b600081519050919050565b6000602082019050919050565b6000602082019050919050565b600082825260208201905092915050565b600082825260208201905092915050565b600082825260208201905092915050565b6000611b0582611be8565b9150611b1083611be8565b9250827fffffffffffffffffffffffffffffffffffffffffffffffffffffffffffffffff03821115611b4557611b44611c3b565b5b828201905092915050565b6000611b5b82611be8565b9150611b6683611be8565b9250817fffffffffffffffffffffffffffffffffffffffffffffffffffffffffffffffff0483118215151615611b9f57611b9e611c3b565b5b828202905092915050565b6000611bb582611bc8565b9050919050565b60008115159050919050565b600073ffffffffffffffffffffffffffffffffffffffff82169050919050565b6000819050919050565b6000611bfd82611be8565b91507fffffffffffffffffffffffffffffffffffffffffffffffffffffffffffffffff821415611c3057611c2f611c3b565b5b600182019050919050565b7f4e487b7100000000000000000000000000000000000000000000000000000000600052601160045260246000fd5b611c7381611baa565b8114611c7e57600080fd5b50565b611c8a81611be8565b8114611c9557600080fd5b5056fea2646970667358221220fb3c7b893b2f67cc22fe2ef3ab047935a7304004916527663bc33f1cc199a10c64736f6c63430008000033",
  "immutableReferences": {},
  "source": "// SPDX-License-Identifier: MIT\npragma solidity ^0.8.0;\n\ncontract EnergyTrading {\n    // Basic user data\n    mapping(address => bool) public users;\n\n    // Energy offer details\n\n    struct EnergyOffer {\n        uint256 id;\n        address seller;\n        uint256 energyAmount;  // in kWh or any unit\n        uint256 pricePerUnit;  // price per energy unit\n        uint256 auctionEndTime;\n        address highestBidder;\n        uint256 highestBid;\n        bool auctionEnded;\n    }\n\n    struct Bid {\n        address bidder;\n        uint256 amount;\n        uint256 offerId;\n    }\n\n    EnergyOffer[] public energyOffers;\n    Bid[] public bids;\n\n    event UserRegistered(address user);\n    event EnergyOffered(address seller, uint256 energyAmount, uint256 pricePerUnit);\n    event NewBid(address bidder, uint256 bidAmount);\n    event AuctionEnded(address winner, uint256 amount, uint256 energyAmount);\n\n    modifier onlyRegisteredUser() {\n        require(users[msg.sender], \"User must be registered.\");\n        _;\n    }\n\n    modifier onlySeller(uint256 offerId) {\n        require(msg.sender == energyOffers[offerId].seller, \"Only the seller can call this.\");\n        _;\n    }\n\n    // Register a user with their wallet address\n    function registerUser() external {\n        require(!users[msg.sender], \"User already registered.\");\n        users[msg.sender] = true;\n        emit UserRegistered(msg.sender);\n    }\n\n    // Offer energy for sale\n    function offerEnergy(uint256 _energyAmount, uint256 _pricePerUnit, uint256 _auctionDurationMinutes) external onlyRegisteredUser {\n        require(_energyAmount > 0, \"Energy amount must be greater than zero.\");\n        require(_pricePerUnit > 0, \"Price per unit must be greater than zero.\");\n\n        uint256 auctionEndTime = block.timestamp + _auctionDurationMinutes * 1 minutes;\n\n        energyOffers.push(EnergyOffer({\n            id: energyOffers.length,\n            seller: msg.sender,\n            energyAmount: _energyAmount,\n            pricePerUnit: _pricePerUnit,\n            auctionEndTime: auctionEndTime,\n            highestBidder: address(0),\n            highestBid: 0,\n            auctionEnded: false\n        }));\n\n        emit EnergyOffered(msg.sender, _energyAmount, _pricePerUnit);\n    }\n\n    // Place a bid on an energy offer\n    function placeBid(uint256 offerId, uint256 _bidAmount) external onlyRegisteredUser payable {\n        EnergyOffer storage offer = energyOffers[offerId];\n\n        // Automatically check if the auction has ended\n        _endAuctionIfExpired(offerId);\n\n        require(block.timestamp < offer.auctionEndTime, \"Auction has ended.\");\n        require(_bidAmount > offer.highestBid, \"Bid must be higher than the current highest bid.\");\n\n        // Refund previous highest bidder\n        if (offer.highestBidder != address(0)) {\n            payable(offer.highestBidder).transfer(offer.highestBid);\n        }\n\n        // Store the new bid\n        bids.push(Bid({\n            bidder: msg.sender,\n            amount: _bidAmount,\n            offerId: offerId\n        }));\n\n        // Update highest bid\n        offer.highestBidder = msg.sender;\n        offer.highestBid = msg.value;\n\n        emit NewBid(msg.sender, msg.value);\n    }\n\n    // Automatically end the auction if the time has expired\n    function _endAuctionIfExpired(uint256 offerId) private {\n        EnergyOffer storage offer = energyOffers[offerId];\n\n        if (block.timestamp >= offer.auctionEndTime && !offer.auctionEnded) {\n            // Mark auction as ended\n            offer.auctionEnded = true;\n\n            // Transfer the highest bid to the seller\n            payable(offer.seller).transfer(offer.highestBid);\n\n            // Emit auction end event\n            emit AuctionEnded(offer.highestBidder, offer.highestBid, offer.energyAmount);\n        }\n    }\n\n    // End the auction and transfer the energy to the highest bidder (for sellers)\n    function endAuction(uint256 offerId) external onlySeller(offerId) {\n        EnergyOffer storage offer = energyOffers[offerId];\n\n        // Automatically check if auction time has passed and end it\n        _endAuctionIfExpired(offerId);\n\n        // Auction has already been ended automatically or manually\n        require(offer.auctionEnded, \"Auction has not ended yet.\");\n    }\n\n    // Get all active (running) offers\n    function getActiveOffers() external view returns (uint256[] memory) {\n        uint256 activeCount = 0;\n\n        // Count how many auctions are still active\n        for (uint256 i = 0; i < energyOffers.length; i++) {\n            if (block.timestamp < energyOffers[i].auctionEndTime && !energyOffers[i].auctionEnded) {\n                activeCount++;\n            }\n        }\n\n        // Allocate space for active auction IDs\n        uint256[] memory activeOfferIds = new uint256[](activeCount);\n        uint256 index = 0;\n\n        // Store the IDs of active auctions\n        for (uint256 i = 0; i < energyOffers.length; i++) {\n            if (block.timestamp < energyOffers[i].auctionEndTime && !energyOffers[i].auctionEnded) {\n                activeOfferIds[index] = i;\n                index++;\n            }\n        }\n\n        return activeOfferIds;\n    }\n\n    // Get all bids for a specific offer\n    function getBids(uint256 offerId) external view returns (Bid[] memory) {\n        uint256 bidCount = 0;\n\n        // Count how many bids are placed on the offer\n        for (uint256 i = 0; i < bids.length; i++) {\n            if (bids[i].offerId == offerId) {\n                bidCount++;\n            }\n        }\n\n        // Allocate space for bids\n        Bid[] memory offerBids = new Bid[](bidCount);\n        uint256 index = 0;\n\n        // Store the bids for the offer\n        for (uint256 i = 0; i < bids.length; i++) {\n            if (bids[i].offerId == offerId) {\n                offerBids[index] = bids[i];\n                index++;\n            }\n        }\n\n        return offerBids;\n    }\n}\n",
  "sourcePath": "/home/somnef/hackathon_genial/bc_utility/contracts/EnrgyTrading.sol",
  "compiler": {
    "name": "solc",
    "version": "0.8.0+commit.c7dfd78e.Emscripten.clang"
  },
  "schemaVersion": "3.4.16",
  "updatedAt": "2024-11-20T16:24:55.574Z",
  "devdoc": {
    "kind": "dev",
    "methods": {},
    "version": 1
  },
  "userdoc": {
    "kind": "user",
    "methods": {},
    "version": 1
  }
}